ARP: 
    tcpdump -i wlp7s0 -ent '(dst 172.16.3.1 and src 172.16.3.100) or (dst 172.16.3.100 and src 172.16.3.1)'     抓取两IP间数据包,观察ARP和高速缓存

DNS: 
    tcpdump -i wlp7s0 -ntx -s 500 port domain   抓取wlp7s0无线网卡上的DNS服务端口数据包(host -t A www.baidu.com)

IP:
    tcpdump -ntx -i lo  抓取本地回路上的数据包
    IP 127.0.0.1.55288 > 127.0.0.1.ssh: Flags [S], seq 2749100201, win 43690, options [mss 65495,sackOK,TS val 25648567 ecr 0,nop,wscale 7], length 0
    0x0000:  4500 003c ad1e 4000 4006 8f9b 7f00 0001
    0x0010:  7f00 0001 d7f8 0016 a3db f0a9 0000 0000
    0x0020:  a002 aaaa fe30 0000 0204 ffd7 0402 080a
    0x0030:  0187 5db7 0000 0000 0103 0307

    tcpdump -ntx -i lo icmp     只抓取ICMP报文(ping 172.16.3.1 -s 1473)
    IP (tos 0x0, ttl 64, id 11397, offset 0, flags [+], proto ICMP (1), length 1500)
        172.16.3.100 > 172.16.3.1: ICMP echo request, id 10999, seq 1, length 1480
    IP (tos 0x0, ttl 64, id 11397, offset 1480, flags [none], proto ICMP (1), length 21)
        172.16.3.100 > 172.16.3.1: ip-proto-1

